:020000040800F2
:10000000F84F0020AD0100081D3C0008B53600087F
:10001000193C000835170008514100080000000095
:10002000000000000000000000000000C13C0008CB
:10003000E917000800000000513C0008213D0008BD
:10004000C7010008C7010008C7010008C701000870
:10005000C7010008C7010008C7010008C701000860
:10006000C7010008C7010008C7010008C701000850
:10007000C7010008C7010008C7010008C701000840
:10008000C7010008C7010008C70100083141000886
:1000900041410008C7010008C7010008C701000866
:1000A000C7010008B53D0008C7010008C7010008E6
:1000B000C53D0008C7010008C7010008C7010008C6
:1000C000C7010008C7010008C7010008C7010008F0
:1000D000C701000821410008C7010008C701000846
:1000E000C7010008C7010008C701000800F002F8B6
:1000F00000F04DF80AA090E8000C82448344AAF175
:100100000107DA4501D100F042F8AFF2090EBAE872
:100110000F0013F0010F18BFFB1A43F0010318473B
:1001200090640000B0640000103A24BF78C878C121
:10013000FAD8520724BF30C830C144BF04680C60ED
:10014000704700000023002400250026103A28BF35
:1001500078C1FBD8520728BF30C148BF0B60704739
:10016000642900F08D80002070471FB500F0E4FD89
:1001700004000020002105F011FE401C60600020FA
:10018000002105F0F5FDE0601FBD10B510BD01F0C8
:1001900027F81146FFF7E9FF04F016F801F078FAA6
:1001A00003B4FFF7F2FF03BC01F0BCFA0948804733
:1001B00009480047FEE7FEE7FEE7FEE7FEE7FEE749
:1001C000FEE7FEE7FEE7FEE704480549054A064B61
:1001D00070470000B13D0008ED000008F84900201C
:1001E000F84F0020F84B0020F84B00200FB41CB54E
:1001F000084B06AA7B4469460090059800F091FAE6
:1002000004460020694600F09FFA20461CBC5DF8B9
:1002100014FB0000510500002DE9F0410E46044694
:10022000002020622046E168884730B3252805D0A9
:10023000D4E901219047206A401CF2E7E16820469A
:1002400000278847050018D0A5F14100192802D8D9
:1002500020354FF400673246294620462760FFF7D5
:100260007FFF40B1012804D0F61D26F007060836AE
:10027000D8E7361DD6E72846DAE7206ABDE8F081E0
:100280002DE9F0410646002410687529314616A56F
:1002900010D0AFF30080002802DA404213A507E037
:1002A00031688A0701D512A502E0490704D511A5D6
:1002B000012401E0AFF3008000210A2206F12407A7
:1002C00009E0B0FBF2FCB0FBF2F302FB1C003030A3
:1002D00078541846491C0028F3D123462A46304654
:1002E000BDE8F04100F0BEB9000000002D000000A4
:1002F0002B000000200000000FB400B58DB010A945
:10030000099000910B904FF0FF300A9000200C9064
:10031000064878440690064878446A4607900F9944
:1003200009A800F0A7FC0DB05DF814FB7F090000E0
:10033000970900002DE9FF5F1D464FF0FF3B9146F6
:100340004FF000085F46D5E90146A96901987F1C76
:100350008847296A824688470028F6D1BAF1FF3FCC
:100360000CD0002E24F4C06419DD600614D5BAF157
:100370002B0F09D0BAF12D0F0ED103E0584604B06F
:10038000BDE8F09F44F48064A96901987F1C884708
:10039000761E8246002E02DDBAF1300F03D0B9F18D
:1003A000000F26D032E0A969761E01987F1C44F424
:1003B00000748847002E824605DDBAF1780F06D01A
:1003C000BAF1580F03D0B9F1000F10D01EE0B9F107
:1003D000000F02D0B9F1100F18D1A969761E01984B
:1003E0007F1C24F4007488478246102002E0082015
:1003F00000E00A20814609E0A96908FB0908761E89
:1004000001987F1C44F4007488478246002E05DD65
:100410004946504600F09DF90028EDDAE969019857
:100420008847A00502D46FF00100A8E7E00725D1B6
:10043000600613D5600502D5C8F1000000E0404613
:1004400029680A1D2A600968220501D5087015E08F
:10045000220701D5088011E008600FE02868011D1F
:1004600029600068210502D580F8008006E0210798
:1004700002D5A0F8008001E0C0F8008038467EE791
:100480002DE9FF5F4FF000089946144646469169F2
:10049000D2E901A7DDF838B001988847054659EA46
:1004A0000B0005D009E0A1690198761C8847054634
:1004B000216A284688470028F5D1681C03D05FEAE6
:1004C000CA7005D015E04FF0FF3004B0BDE8F09FD2
:1004D0002068011D2160D0F800800AE05FEACA7040
:1004E00001D108F8015BA169761C01987F1E88473D
:1004F0000546002F1ADD681C18D0B9F1000F0DD089
:10050000E81705EBD060421120F01F0059F82210C7
:100510002A1A012090400142E0D107E0BBF1000F10
:10052000DCD12846216A88470028D7D0E1690198A4
:100530008847BBF1000F07D1002E05DD5FEACA70C6
:1005400002D1002188F80010A068B84203DDBBF199
:10055000000F03D017B16FF00100B6E73046B4E7E3
:10056000032A40F2308010F0030C00F0158011F8DF
:10057000013BBCF1020F624498BF11F801CB00F8B7
:10058000013B38BF11F8013BA2F1040298BF00F80B
:1005900001CB38BF00F8013B11F0030300F09A8350
:1005A000083AC0F0088051F8043B083A51F804CBEF
:1005B000A0E80810F5E7121D5CBF51F8043B40F8B5
:1005C000043BAFF30080D20724BF11F8013B11F8C0
:1005D00001CB48BF11F8012B24BF00F8013B00F804
:1005E00001CB48BF00F8012B704702F0FF0343EA3C
:1005F000032242EA024200F002B84FF0000200B5C6
:10060000134694469646203922BFA0E80C50A0E835
:100610000C50B1F12001BFF4F7AF090728BFA0E8E3
:100620000C5048BF0CC05DF804EB890028BF40F8AF
:10063000042B08BF704748BF20F8022B11F0804FF1
:1006400018BF00F8012B704770477047704710B50E
:1006500000F076FB006810BD10B5044600F070FB9A
:10066000046010BD2DE9F0470D46994692460446B8
:1006700000F124080168880604D5E06921F0100122
:10068000216000E00120A84201DD471B00E00027B7
:10069000A1697A1902EB0900081AA0612078C00646
:1006A00002D42046AFF30080002608E0D4E90121FF
:1006B0001AF806009047206A401C761C20624E45BE
:1006C000F4DB2078C0060AD52046AFF3008006E0B0
:1006D000D4E9012130209047206A401C2062381E56
:1006E000A7F10107F4DC07E0D4E9012118F80500BF
:1006F0009047206A401C2062281EA5F10105F3DC0A
:100700002046AFF300802078000602D50220BDE825
:10071000F0870120FBE7000001694A1C02610878AC
:10072000704700B58FB0CDE9013100210591054931
:100730007944CDE9031011466846FFF76DFD0FB00F
:1007400000BD0000E5FFFFFF0A6802F8010B0A6028
:1007500070473A2800D2303820F02002412A01D3D5
:10076000A2F13700884201D34FF0FF3070470000FC
:100770002DE9FF4F06468BB00878FF2806D0491CAC
:100780002D2805D000244FF0000908E000200CE0DF
:100790000124F8E709EB8903491C00EB43090878B9
:1007A000FF28F7D114B1C9F1000081461078002567
:1007B0002C46AA4629462D2801D02B2804D1521CAC
:1007C0002D2813D0002082468B461078FF280FD0AA
:1007D0004FF0000C0A21521CA5FB017804FB01819B
:1007E00005FB0C11C5194BEB0104EEE70120EAE70C
:1007F000002108464FF00000BAF1000F02D000EBD4
:1008000080004008C0F38157012F01DD4FF0FF3712
:100810000E9955EA040009EB01080BD04FF00209CC
:1008200018F5FA7F16DA4FEACA70002F706008DDFB
:10083000012007E04FEACA70C6E900B00FB0BDE87A
:10084000F08F0020306000F07BFAC0F80090182193
:10085000084616E0B8F5FA7F18DD002F02DAF748EF
:10086000784401E0F6487844D0E90010C6E9001069
:1008700040EACA70706000F063FAC0F8009014217A
:1008800008460FB0BDE8F04F05F0B6BD00210846A0
:100890004FF00000B8F10001099002DAC7F1000240
:1008A00000E03A4601DAC8F1000106A800F022FC97
:1008B00006AB93E8070003AB83E8070044F23E0071
:1008C0005BEA04010090584604D144F21E012C4614
:1008D0005D460091210C0904014306D100992404CE
:1008E00044EA15442D041039009104F07F4101437E
:1008F00006D10099240244EA15642D0208390091BA
:1009000004F07041014306D10099240144EA1574B2
:100910002D01091F009104F04041014306D10099C7
:10092000A40044EA9574AD00891E009104F00041D2
:10093000084304D100986D196441401E00904FF0A7
:1009400001033A466846B8F1000FCDE9014503A915
:1009500002DD04F0E8FF01E004F0BBFFBAF1000F94
:1009600004460D4601D084F00044002108464FF0B3
:100970000000099940F2FF77484010F00C0F07D1B2
:1009800024F00040284303D0C4F30A50B84212D1E7
:1009900000F0D6F9C0F80090C4F30A50B8420AD16A
:1009A000A8487844D0E90010C6E9001004F00041DE
:1009B0000843706042E7C6E900543FE72DE9FF4F66
:1009C0001F464FF0000A4FF0FF38454691B0D7E977
:1009D0000146CDF83CA000F0AFF9C0680168405C6A
:1009E0001090B96912986D1C8847396A814688470A
:1009F0000028F6D1B9F1FF3F0AD0002E24F4D064CC
:100A000011DDB9F12B0F08D0B9F12D0F0BD102E098
:100A1000404615B013E744F48064B96912986D1C20
:100A20008847761E8146600504A901D52D2000E087
:100A30002B20002E01F1010B0DF130088DF8100074
:100A40003FDDB9F1690F08D0B9F1490F05D0B9F10F
:100A50006E0F02D0B9F14E0F1CD13B4601A8009594
:100A600080E85002DDE912126FF0020005F02BFD64
:100A7000C11CCED10EE0B96912986D1C8847814621
:100A80001398761E44F4007405600F98401C002EE5
:100A90000F9016DDB9F1300FEDD0B9F1780F02D01B
:100AA000B9F1580F0DD10F9801280AD13B46CDE975
:100AB0000054DDE91212001F029605F002FDC11C70
:100AC000A7D1109989453ED144F0800406E01399DE
:100AD000681CAAF1010A44F400740860B9696D1C2D
:100AE0001298761E884730288146F0D02BE0109966
:100AF000894505D1200603D4761E44F0800418E011
:100B0000484605F0C8F808B3761E0DF12302934558
:100B1000A9F1300044F4007406D20BF8010B200652
:100B200007D5AAF1010003E0200602D40AF1010072
:100B30008246A00502D51399681C0860B96912980D
:100B40006D1C88478146002ED1DC53E0002E51DD1C
:100B5000B9F1650F02D0B9F1450F4BD1A00549D5C8
:100B6000B9696D1C1298761E24F440748847002ED3
:100B700081460CDD2B2804D0B9F12D0F07D144F4A8
:100B80008074B96912986D1C8847761E8146E0050D
:100B900001D52D2100E02B2108F8011BCDF80080A4
:100BA00021E0761E0DF13901884544F400740CD221
:100BB000A9F1300010F0FF0088F8000002D1009980
:100BC000884509D908F1010806E0E00501D51E486D
:100BD00001E042F20F708246B96912986D1C884795
:100BE000814613980560002E04DD484605F053F851
:100BF0000028D6D1F96912988847FF2053468BF810
:100C0000000088F8000000200A900B9004AA0CA9AC
:100C10000AA8FFF7ADFDA00502D46FF00100F8E6C9
:100C200014F0240F12D0E0071CD13868DDE90A1255
:100C3000031D3B600068C0E9001213E0745D000012
:100C4000665D00002A5C0000F1D8FFFF0AA9684633
:100C500004F0B0FFE00705D13868009A011D396043
:100C6000006802602846D4E60268114413780160E7
:100C700018467047D1600549794451610449794467
:100C8000116200211161114600F07AB8EDFFFFFFFB
:100C9000ED000000426842B1016811F8013B23B148
:100CA000521EC0E90012184670470121C160881E1B
:100CB000704742685AB1C368016843B983688B4280
:100CC00005D0491E521CC0E90012002070474FF0A9
:100CD000FF30704710B5203AC0F00B80B1E81850D3
:100CE000A0E81850B1E81850A0E81850203ABFF416
:100CF000F5AF5FEA027C24BFB1E81850A0E81850B5
:100D000044BF18C918C0BDE810405FEA827C24BF08
:100D100051F8043B40F8043B08BF7047D20728BF96
:100D200031F8023B48BF11F8012B28BF20F8023BE5
:100D300048BF00F8012B7047004870473000002082
:100D40000048704710000020B2F120030AD5C2F11C
:100D5000200301FA02F120FA03F341EA030100FA49
:100D600002F0704700FA03F14FF00000704710B531
:100D7000044600F05BFA0068005D00F0010010BD61
:100D80002DE9F34F4FF0000A0C4656468DB0012076
:100D90000C9001F10C000B9062690B9801219047B7
:100DA000051E2DD0252D2CD0216A8847C0B162693F
:100DB0000B9801219047216A88470028F7D1626982
:100DC000411E0B98904700E0761CA1690D9888475A
:100DD000216A88470028F7D1E1690D988847DBE749
:100DE000A1690D988847A842074601D1761CD3E730
:100DF000E1690D9888477F1C02D1BAF1000F6FD0CE
:100E00006BE162690B9800273D46394690472A28D6
:100E100004D162690B98012190470125DFF8D08247
:100E200062690B9801219047A0F130010A290AD28A
:100E30004745E5DC07EB870100EB4107303FDFD496
:100E400045F01005ECE7E90601D46FF000476C2887
:100E50000AD04C2814D0682815D06A280DD07428E0
:100E60001CD07A281AD01DE062690B9801219047A6
:100E70006C2802D045F0040514E045F002050DE0B1
:100E800045F020050AE062690B9801219047682827
:100E900002D045F0080505E045F4006562690B984D
:100EA00001219047C4E9015765283DD019DC582835
:100EB0007AD00CDC452837D004DC252826D0412800
:100EC0009ED131E046282FD0472899D12CE05B28CD
:100ED00077D0612828D063287CD0642823D15AE0B9
:100EE000F6E06F2848D008DC66281DD067281BD0A4
:100EF000692821D06E2816D127E0702845D07328A4
:100F000068D0752847D078280DD14DE0A1690D989B
:100F10008847252805463FF469AFE1690D98884761
:100F20006D1C3FF46AAFD8E00D9923466A466FF016
:100F3000010005F0C4FAC5E045F0400023464FF03B
:100F400000026060A80736D43EE0E8077FF447AFB0
:100F50002068011D21600068290501D506701BE786
:100F6000290701D5068017E7A90703D5F117C0E9BE
:100F7000006111E706600FE745F0400023464FF09F
:100F800008026060A80716D41EE040F60E0125EAAC
:100F90000100606016E045F0400023464FF00A0271
:100FA0006060A80707D40FE045F040006060A80724
:100FB00008D5234610220D996FF00100AFF3008091
:100FC00080E007E0102223460D996FF00100FFF743
:100FD000B1F977E04FF0000963284F46C8464B4609
:100FE000CB4602D05B2806D038E0E80601D40120C9
:100FF000A060012732E06269D4F80CB00B9801219F
:1010000090475E2807D14FF0010949466269D4F83C
:101010000CB00B989047216939B900210A4603ABFF
:1010200043F82120491C0829FADBD8B3216949B3C8
:1010300008F1010862690B98012190475D28F4D1FD
:10104000B9F1000F09D0002003A951F82020D243A4
:1010500041F82020401C0828F7DB03AB206900285A
:1010600020794FEA40701ED05B462246CDF80080C2
:10107000CDE901970D9900286FF0010020DAAFF358
:1010800000801FE0C11703AA00EBD1614B1121F0D2
:101090001F0102EB8302411A1368012088400343B9
:1010A0001360C7E719E00D99224600286FF0010090
:1010B000009702DAAFF3008004E0FFF7E1F901E006
:1010C000AFF3008000280ADA401C06D10C9820B14A
:1010D0004FF0FF300FB0BDE8F08F5046FAE7E90758
:1010E00001D10AF1010A064400200C9054E60000E8
:1010F000CCCCCC0C2DE9F047814616468AB0354859
:1011000078440DC88DE80D0032487844801C03AC4B
:101110000DC884E80D0041F69B300844372190FB50
:10112000F1F290FBF1F5A5F1800501FB12041B3CE7
:1011300002D56442012000E00020DFF898A080463C
:101140000027FA44AAF1BE0A0EE0E0070AD03246B0
:10115000684607EB470101230AEB810104F0CEFB4F
:101160008DE8070064107F1C002CEED1194F7F44DE
:10117000AE3F19E0E80715D007EB04100DF1180A8F
:1011800090E80E008AE80E00C068F04201D198197C
:1011900008903246012306A903A804F0AFFB03AB75
:1011A00083E807006D10641C002DE3D14FF00103AC
:1011B00032466946B8F1000F03A802D004F074FB70
:1011C00001E004F09BFBC9E90001C9F808200AB05E
:1011D000BDE8F087745400000048704710000020FC
:1011E0007546FFF7F9FFAE4605006946534620F005
:1011F0000700854618B020B5FEF7E6FFBDE82040A1
:101200004FF000064FF000074FF000084FF0000BC2
:10121000AC46ACE8C009ACE8C009ACE8C009ACE831
:10122000C00921F007018D467047000010B5FFF797
:1012300083FD001D10BD00BF654B00002DE9FF4F71
:101240001F464FF03C0987B04FF00042DDE9141013
:1012500001F10108DDF858A002EA40500390002097
:1012600005908346054604460490B969461E0898D1
:101270008847AAF1010A0290BAF1000F3BDD0298FB
:101280002E2815D01021FFF764FA00282EDB4FF02E
:10129000010B0599014317D0B9F1000F0BDB4A464A
:1012A000C117FFF751FD05430C43A9F1040905E0FF
:1012B000012004900BE008B145F0010501200590E4
:1012C000049820B9361D02E0049800B1361FB969B0
:1012D000089808F101088847BBF1000FAAF1010A3C
:1012E0000290C9D00999C1F80080C5E7029870281A
:1012F00008D0502806D0F96908988847BBF1000F3C
:1013000014D04FE0002002900120BBF1000F0490A8
:1013100009D0B969089808F101088847AAF10109BC
:10132000B9F1000F07DCF969089888476FF00100F0
:101330000BB0BDE8F08F2B2804D02D280CD14FF036
:10134000FF300490B969089808F101088847A9F1AD
:101350000109B9F1000FE6DD411CE4D00A21FFF7D5
:10136000F8F90028DFDB029908F1010801EB81019F
:1013700000EB41000290B969089888470A21FFF7FD
:10138000E8F9099AA9F10109B9F1000FC2F8008042
:1013900001DD0028E7DAF96908988847049902987E
:1013A00000FB016655EA040004D004F04041090046
:1013B00002D006E0039898E0A40044EA9574AD00DA
:1013C000B61E04F00041080002D16D196441761E7A
:1013D000159810F0240F03D04FF00B095C4803E080
:1013E0004FF028096FF07D008246564507DAAAEBD8
:1013F00006018944B9F1410F01DD4FF04109012097
:101400000021A9F10102FFF79FFC024628400B468C
:101410002140084301D0012100E00021501E02912B
:1014200043F1FF3128402140084301D0012000E072
:1014300000200299834651EA0B014FD00021084653
:101440004FF00000039900F4400039B100EB800038
:101450004FF4400100EBD07001EA600080150128D4
:1014600002DD4FF0FF3000E013D0401C36D0029870
:1014700060B3BBF1000F0CD14A4601200021FFF7F9
:1014800063FC28402140084301D0012000E00020F7
:10149000E0B101204A460021FFF756FC03464019FF
:1014A0000A4661412D1A8C4111D3B9F1400F09DD73
:1014B000159810F0240F02D0AAF1340603E0AAF127
:1014C000170600E0761C00254FF0004406E05B1E86
:1014D00042F1FF3220EA030521EA0204CAF10100C9
:1014E000B04206DA1B49039808430190002000909F
:1014F0000EE0039AC4F3D321E80A0A43164940EAEE
:1015000044500A433146CDE90002684604F0B8FB76
:10151000159810F0240F0BD01598C00715D1386816
:10152000DDE90012031D3B600068C0E900120CE019
:1015300002A8694604F03EFB1598C00705D138683B
:10154000029A011D3960006802604046F0E6000022
:1015500002FCFFFF0000F07F0000F03F2DE9FF4F8D
:1015600092461D4685B04FF00041DDE9124BDDE9A2
:1015700014727F1E01EA4B50414940F0FF4940EA96
:101580000108002122F020004928049102D04E28B1
:1015900028D04CE03BA0012607C88DE80700A969C8
:1015A0000698641C88477F1E014606D41DF8060075
:1015B00018B121F0200181420BD0E96906988847D3
:1015C000032E34D0082E32D06FF0010009B0BDE8F0
:1015D000F08F761C032E01D0082EE0D1601CCAF8D3
:1015E0000000DCE7A9690698641C88477F1E2AD49E
:1015F00020F02000412826D1A9690698641C88475C
:101600007F1E20D420F020004E281CD1A969069806
:10161000641C88477F1E48F4002849F48009CAF8F2
:10162000004001D4282806D0E969069888475FEA77
:10163000CB7012D022E0A9690698641C88477F1EEF
:1016400001D4002803DAE96906988847BCE729280D
:10165000F1D1641CCAF80040E9E71BF0240F07D061
:1016600028680499031D2B600068C0E9001805E094
:101670002868021D2A600068C0F800902046A5E78F
:101680000000F07F494E46494E4954590000000081
:1016900010B50446AFF300802046BDE81040FEF7C9
:1016A0007FBD00004FF0013C50F8042B51F8043B83
:1016B0009A4221D1A2EB0C03934313EACC1317D126
:1016C00050F8042B51F8043B9A4215D1A2EB0C03BD
:1016D000934313EACC130BD150F8042B51F8043B7D
:1016E0009A4209D1A2EB0C03934313EACC13DBD04B
:1016F0004FF00000704700BFD01A01BAB1FA81F173
:1017000001F0180122FA01F0CB40DBB2C0B2C01ADE
:10171000C1F120012CFA01F3D11A914311EAC3114E
:10172000E6D1704701491820ABBEFEE72600020053
:1017300070470000FEE7000082B003F09FFC40F21B
:10174000A424C2F200040190204601F02FFC40F2D4
:10175000740B40F2700640F2760546F2A85840F24B
:10176000303740F20409C2F2000BC2F20006C2F2A6
:101770000005C0F60008C2F20007C2F200090DF130
:10178000040A00BF2068406AABF8000002F030F99C
:1017900002F010F902F0A6FA2068406A3080204674
:1017A00001F038FC3088BBF80010401A40F272019A
:1017B000C2F20001088082B228464146FEF716FDBB
:1017C00082B2384629464FF0FF3301F00BFF38460E
:1017D000494602224FF0FF3301F004FF50466421D6
:1017E00003F016FCCEE7000070470000EFF3108016
:1017F00072B600BFFEE7000010B584B003F022F916
:1018000040F21011642828BF6420C2F20001CDE923
:10181000001040F208204FF0FF34C2F20000842193
:10182000FF220123029400F037FE08B104B010BD7E
:1018300040F21014C2F20004204600F007F82046DF
:101840006421FEF7DAFE04B010BD0000B0B588B028
:1018500040F2E004C2F2000404F1100E04F1200290
:1018600004F12A0304F1290104F1080504F1240C10
:10187000CDE90051CDE90243CDE9042E04F118026F
:1018800004F128031EA1CDF818C0FEF735FD94F829
:101890002900532803D1E06880F00040E06094F80C
:1018A0002A00572803D1606880F000406060206AF9
:1018B00004F02CFD41F26F224AF2CA13CCF28302EB
:1018C000C3F6FD7304F0C6FA04F07EFA40F29831D4
:1018D00094E82C00C2F200012062E468C1E9002310
:1018E00040F27831C2F20001C1E9005404F00EFD6B
:1018F00040F22052C2F20002C2E9000108B0B0BDBD
:1019000024474E524D432C256C662C25632C256CA8
:10191000662C25632C256C662C25632C25662C25CE
:101920006C662C256400000082B003F0A7FB40F237
:10193000A424C2F200040190204601F037FB40F2DB
:10194000781B40F2741640F27A1546F2A85840F21D
:10195000303740F20409C2F2000BC2F20006C2F2B4
:101960000005C0F60008C2F20007C2F200090DF13E
:10197000040A00BF2068406AABF80000FFF73CFF94
:101980002068406A3080204601F044FB3088BBF874
:101990000010401A40F27611C2F20001088082B2B3
:1019A00028464146FEF722FC82B2384629464FF0CF
:1019B000FF3301F017FE3846494602224FF0FF334D
:1019C00001F010FE5046642103F022FBD2E7000034
:1019D00090F82020013A012A04D8006800F114028E
:1019E000002004E000F1240201204FF4802113685C
:1019F000194311607047000010B590F820E0D0F84E
:101A000000C0AEF1010EBEF1010FDCF808E00DD808
:101A10001EF0E05F10D0CEF3016EBEF1030F11D1C6
:101A200000F1240101204FF4000233E000F1240111
:101A300001204FF480222DE000F1240101204FF419
:101A4000001227E0012000FA0EF01860886818B133
:101A50004B6840EAC30001E008684005D1E903345F
:101A600003430CEB0E10C0F88031C0F88441097DAF
:101A7000012905D100F5C2710B6843F480730B6036
:101A80005168C0F88C11126800F5C071C0F8882147
:101A9000002001220B681A430A6010BD7047000045
:101AA0002DE9F04F81B0044600684669D0F80490F3
:101AB0008768D0F80CB0D0F810A0D0F81880F107E3
:101AC00003D1002530071CD423E0F90710D00121F1
:101AD000BA07816009D4780700F1AA80380700F1BD
:101AE000B080204600F0FCF902E0204600F0FAF950
:101AF0000025F80500F18480F80300F1AA80300782
:101B000007D51BF0100004D0206845F400751021A3
:101B1000C160700708D51BF0080005D020680821B7
:101B2000C160204600F0A4F9B00706D52068C0685F
:101B3000800702D0204600F09DF9700607D51AF004
:101B4000100004D0206845F4806510210161B006C2
:101B500008D51AF0080005D0206808210161204648
:101B600000F08AF9F00606D520680069800702D0E7
:101B7000204600F083F9B00308D519F0100005D015
:101B8000206810214160204600F07AF9F00308D562
:101B900019F0080005D0206808214160204600F0B7
:101BA00029FA300440F18F805FEA497040F1888063
:101BB00006F4807008EA102028435FEA8871014625
:101BC00048BF41F00201B20558BF01465FEA4870C4
:101BD0000D4648BF45F00405700558BF0D46300559
:101BE0006ED518F070006BD010380009052862D847
:101BF000DFE800F0035356595C5F45F008055AE0F2
:101C000020684FF48071BA0581600AD4780512D437
:101C1000380519D4204600F091F9F8037FF56FAF2D
:101C200017E0204600F08CF9F8037FF568AF10E06C
:101C30004FF400655DE705F50055F8037FF55FAFEC
:101C400007E04FF4805554E705F58045F8037FF52C
:101C500056AF20684FF48031BA0381600AD478030C
:101C60000FD4380313D4204600F096F930073FF51F
:101C700048AF4EE7204600F091F930073FF541AFFD
:101C800047E705F5004530073FF53BAF41E705F570
:101C9000803530073FF535AF3BE745F010050AE0EA
:101CA00045F0200507E045F0400504E045F08005DB
:101CB00001E045F480752068816921F0700181613F
:101CC0002068042141602DB1606A2843606220468B
:101CD000FFF7E4FE01B0BDE8F08F0000B0B5C8B179
:101CE000044690F8200010B9204600F071F82068F2
:101CF000016841F00101016000F0FCFA054600BFF7
:101D000020684168C90707D100F0F4FA401B0B288E
:101D1000F6D312E00120B0BD016821F0020101609C
:101D200000F0E8FA054600BF2068416889070DD534
:101D300000F0E0FA401B0B28F6D3606A052140F45E
:101D400000306062012084F82010B0BD217E02685E
:101D5000012922F0800208BF80320260617E0268A1
:101D6000012922F0400208BF40320260A17E0268D1
:101D7000012922F0200208BF20320260E17E0268C1
:101D8000012922F0100218BF10320260217F026880
:101D9000012922F0080208BF08320260617F026850
:101DA000012922F0040208BF04320260D4E901C212
:101DB000D4E9033561691A432A431143ACF10102A6
:101DC0001143C16100200121606284F82010B0BD80
:101DD000B0B586B040F60004C4F201040068A4F572
:101DE0002442002190420591CDE90311029101D0D6
:101DF00006B0B0BD41F21800C4F20200426802AD64
:101E000042F000724260426802F000720192019A50
:101E1000026842F004020260006800F004000190D1
:101E200001984FF40060CDE9020104912046294653
:101E300000F054F94FF480500290022003900320E8
:101E400005902046294600F049F913200021002280
:101E500000F04EFD132000F047FD14200021002269
:101E600000F046FD142000F03FFD06B0B0BD0000BC
:101E70007047000070470000704700007047000086
:101E800070470000B0B5044690F8200001281DD12D
:101E9000022084F820002068016821F0010101601F
:101EA00000F028FA054600BF20684068C00713D03C
:101EB00000F020FA401B0B28F6D3606A40F4003093
:101EC0006062052084F820000120B0BD606A40F403
:101ED000002060620120B0BD00206062B0BD000043
:101EE0007047000080B584B046F66560C2F27400A9
:101EF000CDF80B0042F23100C6F27350029046F268
:101F00006170C2F26500019046F24D50C7F2733025
:101F1000009040F2EC20C2F2000069460F224FF020
:101F2000FF3301F05FFB41F20000C4F201004FF407
:101F3000005100F0D1F904B080BD000070470000EE
:101F400080B584B046F66560C2F27400CDF80B002F
:101F500042F23200C6F27350029046F26170C2F251
:101F60006500019046F24D50C7F27330009040F288
:101F7000EC20C2F2000069460F224FF0FF3301F05F
:101F800031FB41F20000C4F201004FF4005100F0B7
:101F9000A3F904B080BD00007047000080B584B094
:101FA00046F66560C2F27400CDF80B0042F23300D1
:101FB000C6F27350029046F26170C2F26500019061
:101FC00046F24D50C7F27330009040F2EC20C2F25E
:101FD000000069460F224FF0FF3301F003FB41F28E
:101FE0000000C4F201004FF4005100F075F904B094
:101FF00080BD000070470000014690F821000228D3
:1020000013D10868D1E90FC3026822F00E02026002
:10201000026822F001020260012000FA03F2CCF80B
:10202000042081F82100002002E0042088630120C0
:10203000002281F82020704780B590F821100229F5
:1020400023D10268116821F00E0111602F2113685D
:10205000C4F202018A4240F20401C4F2020123F0F8
:102060000103136015DD3023C4F202039A421CD031
:102070004423C4F202039A421AD05823C4F2020342
:102080009A421AD14FF480331FE00421816301206A
:1020900080BD0823C4F202039A420CD01C23C4F270
:1020A00002039A4209D110230FE04FF480730CE031
:1020B0004FF4805309E0012307E001F1680C4FF071
:1020C0008073624508BF4FF480130B60416B4FF47F
:1020D0008072028401B18847002080BD2DE9F04F55
:1020E00082B00E68002E00F0F38041F20042C4F28C
:1020F0000102042340F2004E904208BF03234FF632
:10210000FF7CC4F2010E009300240123C1F2100CE5
:102110004FF0000A4FF0000940E0012504F00C03E5
:102120000F279F402BEA070705FA03F33B4342F8CA
:1021300026304E68F203DEF8002054BF22EA08027F
:1021400042EA0802CEF80020DEF80420B30354BFB0
:1021500022EA080242EA0802CEF80420F302DEF87E
:10216000082054BF22EA080242EA0802B30240F201
:102170000C43CEF80820C4F201031A6854BF22EAC7
:10218000080242EA08021A6001230E680AF1010AF5
:1021900036FA0AF204F1040400F09A8003FA0AFB0A
:1021A00016EA0B08F1D04A68624511DC122A51D8B0
:1021B000DFE802F0340A4246505050505050505020
:1021C0005050505050494D00D1F80C9042E000BFA3
:1021D0004FF6FF75C1F22105AA420FDC0025C1F2BE
:1021E0001105AA421AD00025C1F21205AA4215D043
:1021F0000025C1F22105AA4210D02BE00025C1F232
:102200002205AA420AD00025C1F23105AA4205D012
:102210000025C1F23205AA421CD100BF8A6842B132
:10222000012A14BFC0F814B0C0F810B04FF008096C
:1022300010E04FF004090DE0CA6802F1080909E056
:102240004FF0000906E0CA6802F1040902E0CA681A
:1022500002F10C0922460546B8F5807F24BF203ADA
:1022600004352E680F279740BE4309FA02F2324325
:102270002A60CA79D2067FF588AF41F21803C4F20A
:1022800002031A684FEA9A0642F001021A601A68BD
:1022900040F6000302F001020192019AAEF57E724F
:1022A00052F826B0C4F2010398420FD040F6004322
:1022B000C4F2010398423FF430AF41F20003C4F28C
:1022C0000103009D984208BF022527E7002525E766
:1022D00002B0BDE8F08F0000C26802EA010391433A
:1022E00041EA034101617047002A08BF0904016106
:1022F0007047000044F62810C2F2000000687047E2
:10230000F0B581B0B0B3044690F83D0028B9002084
:1023100084F83C00204600F029FA242084F83D008F
:102320002068016821F001010160016841F4004169
:102330000160016821F40041016000F0CFFB48F228
:102340008041C0F21E0140F60012656888424FF0DD
:102350000001C0F23D0248F2A16C4FF0000338BF0B
:1023600001219042C0F2010C38BF0123654538BFFE
:102370000B4613B1012001B0F0BD4DF68361C4F2EC
:102380001B31A0FB011221684FEA924E4B684FF4BB
:10239000967623F03F0343EA92434B6044F6D353CF
:1023A0000F6A0EFB06F6C1F26203A6FB033627F0A6
:1023B0003F03B709654538BF970C7A1C1A430A6278
:1023C000CA6948F2A0674CF6FF73C0F20107BD422C
:1023D00022EA030C0AD801386A00B0FBF2F001309F
:1023E0006FF31F30042898BF04202BE0A368A0F1EE
:1023F000010E9BB119206843BEFBF0F004220130AE
:1024000062F31F30000512D09BB119206843BEFB58
:10241000F0F00422013062F31F3011E005EB4500BB
:10242000BEFBF0F001306FF31F300005ECD101204E
:1024300008E005EB4500BEFBF0F001306FF31F3004
:1024400040F4004040EA0C00C8610868D4E9072362
:1024500020F0C000104318430860886848F2FF323B
:1024600004F10C0790438CCF18431043A669886091
:10247000C86820F0FF0038433043C860086840F067
:102480000100086000202021206484F83D102063B2
:1024900084F83E0001B0F0BD2DE9F04784B0044659
:1024A00000201F4616460D460390FFF723FF94F8C1
:1024B0003D1020290FD102218146C0F21001204693
:1024C00001221923CDF8009001F094F918B994F87D
:1024D0003C00012803D1022004B0BDE8F0870121AF
:1024E000226884F83C101368DDE90D080C99DB07BD
:1024F00003D1136843F001031360136823F40063EE
:102500001360222284F83D20402284F83E200022DD
:10251000226461626085608D294620850020CFF6A7
:10252000FF70E062204632463B46CDF80080CDF891
:10253000049001F0D9F818B1012004B0BDE8F0878B
:10254000208D022810D0012824D0002838D1002066
:1025500002902068416902918169029102990168A3
:1025600041F40071016037E02068016841F40061C6
:102570000160EFF3108072B600200290206841697C
:102580000291816902910299016821F480610160E0
:1025900062B621E02068016821F480610160EFF3F8
:1025A000108072B600200290206841690291816912
:1025B00002910299016841F40071016062B60BE07A
:1025C0002068016841F48061016000210291416945
:1025D0000291806902900298208D002800F0AC8062
:1025E000042740F2000A4BF28956C0F20107C2F2FA
:1025F000000AC1F2F846232517E0204641464A4624
:1026000001F078F9002897D12068616A00690870A4
:10261000606A218D01306062481E2085608D01381E
:102620006085208D002800F08780032847D8022885
:1026300061D00128E1D02046394600224346CDF83A
:10264000009001F0D7F800287FF476AF2068016889
:1026500021F480610160EFF3108072B62068616A36
:1026600000690870606A218D01300139606221853E
:10267000618D01396185DAF80010C908A1FB0612E5
:10268000110A6943039100BF03990139039103992A
:1026900000295CD021684A695207F5D50A6842F4DE
:1026A00000720A6009690170606A218D0130606200
:1026B000481E2085608D0138608562B6A4E72046FB
:1026C00041464A4601F016F900287FF435AF2068EC
:1026D000616A00690870606A228D0130013A6062A7
:1026E00022852168628D013A62854A69520798D530
:1026F000096901708CE72046394600224346CDF82F
:10270000009001F077F800287FF416AFEFF3108007
:1027100072B62068616A026842F400720260006961
:102720000870606A218D01306062481E2085608DCE
:102730000138608562B667E7202084F83D000020FC
:1027400084F83E0084F83C0004B0BDE8F087002027
:102750002021206384F83D1084F83E00216C41F074
:102760002001216462B684F83C00E5E610B586B02D
:10277000016845F20040C4F2000081424FF00001C0
:10278000CDE90411CDE9021101D006B010BD41F22E
:102790001804C4F20204216800F5384041F0080131
:1027A0002160216801F0080101910199C021029185
:1027B000122103910321059102A9FFF78FFC6068A4
:1027C00040F400106060606800F40010019001980F
:1027D00006B010BD40F2060044F62811C2F2000017
:1027E000C2F2000100780A681044086070470000D7
:1027F00080B542F20000C4F20200016841F010010D
:102800000160032000F084F80F2000F005F800F0CC
:1028100049F8002080BD000010B586B0014619209F
:102820000022002400F064F8192000F05DF841F265
:102830001800C4F20200016841F400610160006800
:10284000694600F400600190019801A800F01EF9AB
:1028500000F056F94DF68361C4F21B31A0FB010173
:102860004FF0FF3000EB914140F25C2042F6004215
:10287000C2F20000C4F2010240F2E733C0E90021D5
:10288000C0E90243046100F043FB10B1012006B02F
:1028900010BD40F25C20C2F2000000F087FB06B0E1
:1028A00010BD000082B041F21800C4F202000168BD
:1028B000022241F001010160016801F00101019172
:1028C0000199416841F080514160406800F08050BA
:1028D000009000980420C4F20100016862F31A61BC
:1028E000016002B07047000080B501F033FC80BD8C
:1028F00070B514460D46064601F03CFC29462246BA
:1029000001F08EF90146304601F03CFC70BD00003C
:1029100080B501F049FC80BD2DE9F04381B000286D
:1029200000F0898042F20008C4F202080446D8F898
:1029300000000D4600F0070088420CD2D8F80000D5
:1029400020F007002843C8F80000D8F8000000F085
:102950000700A8426FD1206841F204098107C4F240
:10296000020917D5410705D5D9F8001041F4E061F7
:10297000C9F80010010705D5D9F8001041F46051DD
:10298000C9F80010D9F80010A26821F0F001114335
:10299000C9F80010C00745D1D8F8000000F00700C2
:1029A000A8420CD9D8F8000020F007002843C8F846
:1029B0000000D8F8000000F00700A8423BD12068D2
:1029C000410707D5D9F80010E26821F4E06111430E
:1029D000C9F80010000708D5D9F80000216920F4D3
:1029E000605040EAC100C9F8000000F09BF8D9F837
:1029F000001046F29052C1F30311C0F60002515C80
:102A000040F2000220FA01F140F20800C2F2000098
:102A10000068C2F200021160FFF7FEFE002001B064
:102A2000BDE8F0836068022809D0012829D159F84F
:102A3000041C890307D4012001B0BDE8F08359F8D4
:102A4000041C8901F7D5D9F8001021F003010843CF
:102A5000C9F80000FFF74EFC064641F2883700BF78
:102A6000D9F80000616800F00C00B0EB810F93D042
:102A7000FFF740FC801BB842F2D9032001B0BDE84B
:102A8000F08359F8041C8907D5D5DCE70F220260D2
:102A900041F20402C4F20202136803F0030343602C
:102AA000136803F0F0038360136803F4E063C3600A
:102AB00012684FF4E06303EAD202026142F20000BE
:102AC000C4F20200006800F00700086070470000D0
:102AD00040F20000C2F200000068704780B5FFF7C6
:102AE000F7FF41F20401C4F20201096846F2A05264
:102AF000C1F30221C0F60002515CC84080BD000055
:102B000080B5FFF7E5FF41F20401C4F20201096854
:102B100046F2A052C1F3C221C0F60002515CC84087
:102B200080BD000041F2040CC4F2020CDCF800305D
:102B300003F00C00082841F20020C0F27A0018BF10
:102B40007047C3F383420AA18A5CD90305D440F6D7
:102B50000010C0F23D0050437047DCF8001008A39D
:102B6000C1F34041595C5043B0FBF1F0704700BFE6
:102B700002030405060708090A0B0C0D0E0F1010BE
:102B8000010200002DE9F04182B0002800F0C4806D
:102B90000446007841F20006C007C4F2020643D0A2
:102BA000706800F00C00042817D0706800F00C006A
:102BB000082802D17068C0030FD465682DB1B5F53F
:102BC000A02F10D0B5F5803F11D0306820F48030B0
:102BD0003060306820F480200CE03068800323D51A
:102BE000606808BB98E0306840F48020306030684E
:102BF00040F480303060FFF77DFB002D054610D09B
:102C00003068800310D4FFF775FB401B6428F7D9A8
:102C100004E100BFFFF76EFB401B64284FF0030088
:102C200077D830688003F5D42078800718D570688D
:102C300010F00C0F07D0706800F00C00082826D1A7
:102C40007068C00323D43068800702D5206901284A
:102C500062D13068616920F0F80040EAC10030605C
:102C6000207800073DD5A06938B30020C4F2422087
:102C70000121C0F88014FFF73DFB0546706A80070C
:102C80002DD4FFF737FB401B0228F7D9C6E0206997
:102C9000002840F20000C4F2422000F0968001219A
:102CA0000160FFF727FB054630688007D1D4FFF7A6
:102CB00021FB401B0228F7D9B0E00020C4F24220DB
:102CC0000021C0F88014FFF715FB0546706A8007E5
:102CD00007D5FFF70FFB401B0228F7D99EE000F055
:102CE000D9FF207840071BD4E5698DB1706800F0EA
:102CF0000C00082847D1012D0ED07068216A00F41D
:102D000080328A4208D1616A00F47010884203D18F
:102D1000002002B0BDE8F081012002B0BDE8F081E2
:102D2000F06910F0805808D1F06940F08050F061EF
:102D3000F06900F080500190019847F20007C4F25A
:102D400000073868C00510D4386840F480703860D7
:102D5000FFF7D0FA054600BF3868C00505D4FFF775
:102D6000C9FA401B6428F7D958E0E5681DB1052D64
:102D70003CD0012D3ED0306A20F001003062306A34
:102D800020F0040039E00027C4F242270020386612
:102D9000FFF7B0FA022D05460CD100BF3068800164
:102DA00054D5FFF7A7FA401B02284FF00300F5D9CE
:102DB000AFE700BF30688001AAD5FFF79BFA401B40
:102DC00002284FF00300F5D9A3E700210160FFF7C7
:102DD00091FA0546306880077FF542AFFFF78AFA1F
:102DE000401B02284FF00300F4D992E7306A40F00C
:102DF00004003062306A40F001003062FFF77AFA76
:102E0000002D054641F2883714D000BF306A800794
:102E100013D4FFF76FFA401BB842F7D9032002B072
:102E2000BDE8F081FFF766FA401BB8424FF003009F
:102E30003FF66FAF306A8007F4D4B8F1000F7FF42B
:102E400053AFF06920F08050F0614DE7206AB0F593
:102E5000803F05D17168A26821F40031114371608F
:102E60007168626A21F47411104308437060012094
:102E70003866FFF73FFA0446306880013FF548AFF7
:102E8000FFF738FA001B02284FF00300F4D940E79F
:102E9000704700007047000010B590F83C20012AF0
:102EA0004FF0020231D0012380F83C3080F83D2001
:102EB0000268D2F804E0D2F808C00C682EF0700363
:102EC000234340F2FF74C4F20004A242536005DCC5
:102ED000B2F1804F0ED040F2004307E042F60043CB
:102EE000C4F201039A4205D040F60003C4F2000385
:102EF0009A4204D149682CF0800319439160012162
:102F0000002280F83D1080F83C20104610BD0000E3
:102F1000002804BF0120704710B5044690F83D001A
:102F200028B9002084F83C00204600F01FF8022059
:102F300084F83D002068211D00F04CFF012084F83A
:102F4000460084F83E0084F83F0084F8400084F88E
:102F5000410084F8420084F8430084F8440084F877
:102F6000450084F83D00002010BD000080B582B00F
:102F70000068B0F1804F01D002B080BD41F21C006A
:102F8000C4F202000168002241F001010160006802
:102F9000002100F00100019001981C20FFF7A8FC1F
:102FA0001C20FFF7A1FC02B080BD000090F83D108E
:102FB00001291CBF01207047022180F83D100068E4
:102FC00040F2FF72C168C4F20002904241F0010178
:102FD000C16005DCB0F1804F0ED040F2004107E047
:102FE00042F60041C4F20101884205D040F60001DA
:102FF000C4F20001884206D1816801F00701062968
:1030000004BF00207047016841F001010160002009
:10301000704700000146006841F21113C26822F0B7
:103020000102C260026A1A4208D1026A40F24443B5
:103030001A4203D1026822F001020260012200203C
:1030400081F83D207047000010B5044690F83C0020
:1030500001284FF0020008BF10BD012284F83C2077
:1030600084F83D0020684FF6777382689A43826047
:103070000A683F2A14DD5F2A18DD602A28D0B2F5DD
:10308000005F2DD0702A40D1D1E9012CCB68614678
:1030900000F0E6FE2068816841F07701816034E04D
:1030A0001F2A0FDC92B1102A10D02EE0402A23D024
:1030B000502A2AD14B68CA68194600F0E5FE2068FC
:1030C000502120E0202A01D0302A1ED111461AE0DA
:1030D0004B68CA68194600F0E9FE2068602112E0DA
:1030E000D1E9012CCB68614600F0BAFE2068816806
:1030F00041F48041816008E04B68CA68194600F0DD
:10310000C3FE2068402100F0B7FE012084F83D0096
:10311000002084F83C0010BD7047000010B5044644
:1031200000680169890744BFC1685FEA817138D4CA
:1031300020680169490744BFC1685FEA41713CD416
:1031400020680169090744BFC1685FEA017141D481
:1031500020680169C90644BFC1685FEAC16145D4FE
:1031600020680169C9071CBFC1685FEAC1714AD103
:1031700020680169090644BFC1685FEA016149D45A
:1031800020680169490644BFC1685FEA416148D4CB
:1031900020680169890644BFC1685FEA816147D43C
:1031A00010BD6FF002010161012121778069800764
:1031B00045D02046FFF7B0FF47E06FF00401016102
:1031C00002212177806910F4407F41D02046FFF72B
:1031D000A3FF43E06FF00801016104212177C0697A
:1031E00080073ED02046FFF797FF40E06FF01001C8
:1031F000016108212177C06910F4407F3AD0204650
:10320000FFF78AFF3CE06FF001010161204600F00A
:103210003FF8ADE76FF0800101612046FFF738FE0F
:10322000AEE76FF040010161204600F03DF8AFE7E6
:103230006FF0200101612046FFF72CFE10BD2046F3
:1032400000F022F8204600F021F8002020776FE7F8
:10325000204600F019F8204600F018F800202077EA
:103260006EE7204600F010F8204600F00FF800202E
:1032700020776DE7204600F007F8204600F006F8BA
:10328000002020776CE700007047000070470000C6
:1032900080B5006842F60041C4F20101884208BFCF
:1032A000FFF798FA80BD00007047000070470000EB
:1032B00070470000B0B582B0016805460868CA686A
:1032C0004C6900F02F03202B02F0200305D123B11D
:1032D000284600F027FE02B0B0BD5FEA007C1EBFAA
:1032E00004F0010E02F4907414EB0E0424D12B6B45
:1032F0001040C20617D5012B15D100200190086897
:103300000190486801900198486940061CD4A88D36
:10331000EA8DEB8D002B1CBF801A5FEA004240F063
:103320009A8002B0B0BD010636D44006F9D52846D1
:1033300000F0ECFD02B0B0BDC10718BF12F48071FF
:103340002FD1410733D439E0A86B0268526893B299
:10335000002BE6D0AC8DA342E3D2EA858269202A15
:1033600016D0CA6822F48072CA604A6922F001024B
:103370004A614A6922F040024A61202285F83E20D3
:1033800000222A63CA6822F01002CA60FEF734FEE7
:10339000A88DE98D401A6FE0284600F065FE02B066
:1033A000B0BD296C41F001012964410706D5BEF189
:1033B000000F03D0296C41F002012964810706D572
:1033C000BEF1000F03D0296C41F004012964BCF167
:1033D000000F06D55EEA030103D0296C41F0080115
:1033E0002964296C00299CD01040800602D528460B
:1033F00000F098FD28684069296C00F0400001F059
:103400000801401820D0284600F06AFD286841696C
:10341000490614D5416921F040014161A86B70B1A2
:1034200043F6D161C0F600014163FEF705FE0028B6
:103430003FF477AFA86B416B884702B0B0BD284618
:10344000FFF736FF02B0B0BD2846FFF731FF00207E
:10345000286402B0B0BDCA6822F49072CA604A699A
:1034600022F001024A61202285F83E2000222A63D0
:10347000CA6822F01002CA6081B22846FFF716FF20
:1034800002B0B0BD002804BF0120704710B504464B
:1034900090F83D0028B9002084F83C00204600F058
:1034A00021F8242084F83D002068C16821F40051EF
:1034B000C160204600F090FD2068016921F4904130
:1034C0000161416921F02A014161C16841F4005163
:1034D000C16000202021206484F83D1084F83E1053
:1034E00010BD000070B586B0006844F20041C4F21F
:1034F0000001002688420596CDE9036602963FD07A
:1035000043F60001C4F20101884266D141F218007D
:10351000C4F20200016840F6000441F480410160F9
:103520000168C4F2010401F480410191019901682C
:1035300002AD41F0040101600068294600F004007A
:10354000019001984FF40070029002200390032034
:1035500005902046FEF7C2FD4FF4806002900020E7
:10356000CDE9030020462946FEF7B8FD25200021BD
:103570000022FFF7BDF92520FFF7B6F906B070BDB0
:1035800041F21800C4F20200416840F6000441F420
:10359000003141604168C4F2010401F4003101913D
:1035A0000199016802AD41F00401016000682946FB
:1035B00000F0040001900198042002900220039082
:1035C000032005902046FEF789FD0820CDE902067C
:1035D000204629460496FEF781FD06B070BD000026
:1035E000704700002DE9F04381B0044690F83D009B
:1035F00020280BD10E4600294FF0010055D0174668
:10360000002A52D094F83C00012803D1022001B0D6
:10361000BDE8F083012084F83C004FF00009212030
:103620001D46C4F8409084F83D00FEF763FEA78471
:10363000E784A1680746B1F5805F07D120690028BB
:103640001CBF30464E46B046064601E04FF000082B
:1036500084F83C9007E000BF16F8010B2168486031
:10366000E08C0138E084E08C80B1204680213A462D
:103670002B4600F023FD80B9002EEDD138F8020B67
:1036800021686FF35F2048600026E9E7204640216B
:103690003A462B4600F012FD18B1032001B0BDE8F8
:1036A000F083202084F83D00002001B0BDE8F083C5
:1036B00070470000FEE700000268516949054FF0BD
:1036C00000010FD56FF4806353612022016380F8FD
:1036D0003D2080F83E10026C42F00402026480F843
:1036E0003C100121084670472DE9F04782B004469E
:1036F00000680E460168DDF828A041F48061016091
:103700000168DDF82C9041F480711D461746016078
:1037100020464FF0011100225346CDF8009000F0F2
:1037200069F850B120680068C00544BF4FF40070CC
:103730002064032002B0BDE8F08740F20208206850
:10374000C0F2010806F0FE060661204641465246D8
:103750004B4600F089F848BB0020019020684A469B
:10376000416901918069514601900198204600F01D
:10377000F1F898B9012D08D02068390A0161204676
:1037800051464A4600F0E6F840B92068F9B20161B6
:10379000204651464A4600F0DDF858B1206C042816
:1037A00004D12068016841F400710160012002B079
:1037B000BDE8F087206800220168534641F480711B
:1037C000016020464FF00111CDF8009000F012F892
:1037D0000028A7D1206846F001010161204641463A
:1037E00052464B4600F040F8002818BF012002B0B6
:1037F000BDE8F0872DE9F047DDF820801D469146B1
:10380000824601F47F078EB25C1C00BFDAF800002C
:10381000B7F5803F14BF1830143000683040801B6B
:10382000B0FA80F0400948451BD1002CEED0FEF7DD
:1038300061FD1DB1A0EB0800A842E7D900202021BE
:10384000CAF830008AF83D108AF83E00DAF84010D5
:1038500041F02001CAF840108AF83C000120BDE880
:10386000F0870020BDE8F0872DE9F04104460068AC
:10387000984643698FB203EA0701B94202D100209A
:10388000BDE8F0814169490512D41646551C00BFB8
:1038900035B1FEF72FFD16B3A0EB0800B0421ED8DD
:1038A000206841693940B942E9D041694905EFD5FD
:1038B000016841F4007101606FF480614161002092
:1038C0002021206384F83D1084F83E00216C41F0F3
:1038D0000401216484F83C000120BDE8F08100204F
:1038E0002021206384F83D1084F83E00216C41F0D3
:1038F0002001EEE770B515460E4604462068416982
:10390000490613D44169C90612D4FEF7F3FC16B177
:10391000401BB042F2D900202021206384F83D10E2
:1039200084F83E00206C40F020000CE0002070BDC8
:103930006FF01001416100202021206384F83D10C8
:1039400084F83E00206C2064002084F83C000120B4
:1039500070BD0000F0B581B0044600684069000603
:1039600024D415460E464F1C04E000BF2068406971
:1039700000061BD42046FFF79FFEA0B9002FF5D00C
:10398000FEF7B8FC16B1401BB042EFD90020202151
:10399000206384F83D1084F83E00216C41F0200142
:1039A000216484F83C00012001B0F0BD002001B08A
:1039B000F0BD000080B540F28031C2F2000111205C
:1039C00000220823C1E90002C1E902220B610A7545
:1039D00040F2E01040F2783240F2B833C2F2000018
:1039E000C2F20002C2F20003FEF706F880BD00003A
:1039F00080B540F2A031C2F200011020002208235D
:103A0000C1E90002C1E902220B610A7540F2E0102F
:103A100040F2983240F2B833C2F20000C2F2000223
:103A2000C2F20003FDF7E8FF80BD000010B540F2D0
:103A3000E01046F2004CC2F20000C4F2000C042276
:103A40004FF0404300214FF4602E4FF48014C0E942
:103A500000C2C0E90231C0E904E481618183FEF75C
:103A60003DF9002808BF10BDFDF7C0FE70B586B057
:103A7000002541F21800CDE90455CDE90255C4F204
:103A80000200016841F2000441F010010160016888
:103A9000C4F2010401F010010191019901680022B2
:103AA00041F02001016001684FF4005601F020014F
:103AB00001910199016841F004010160016801F080
:103AC000040101910199016841F008010160006859
:103AD0004FF4005100F00800019001982046FEF7D5
:103AE00003FC0120CDE903050220059002A9204630
:103AF0000296FEF7F3FA06B070BD000080B540F202
:103B0000082045F20041C2F20000C4F2000141F673
:103B1000802200234FF4804CC0F2060280E80E00A1
:103B2000C0E9033CC0E90533C0E90733FEF7E8FB11
:103B3000002808BF80BDFDF759FE000080B586B0A3
:103B400040F2A4200021C2F200004FF0804247233F
:103B50004FF6FF7CCDE90411CDE90211CDE900114A
:103B6000C0E90023C0E9021C01618161FFF7D0F9BF
:103B7000C0B94FF48050029040F2A420C2F200007D
:103B800002A9FFF761FA68B90020CDE9000040F210
:103B9000A420C2F200006946FFF77EF9002804BFA6
:103BA00006B080BDFDF722FE80B540F2EC2043F662
:103BB0000001C2F20000C4F2010100234FF00C0C1E
:103BC0004FF4E13280E80E00C0E90333C0E905C3D9
:103BD000C361FFF757FC002808BF80BDFDF706FE54
:103BE00080B540F2303044F20041C2F20000C4F22D
:103BF000000100234FF00C0C4FF4E13280E80E007E
:103C0000C0E90333C0E905C3C361FFF73BFC0028EB
:103C100008BF80BDFDF7EAFDFEE70000FEE70000FB
:103C200000F0070080F00703042B28BF04234FF0A7
:103C3000FF3C03380CFA03F338BF0020994381405E
:103C40000CFA00F022EA0000084370470000000070
:103C5000EFF30980BFF36F8F0D4B1A6820E9F00F67
:103C600010602DE908404FF0BF0080F3118801F08B
:103C700039F84FF0000080F31188BDE8084019685A
:103C80000868B0E8F00F80F30988BFF36F8F7047C2
:103C9000C403002081B040F20000C2F200000068BE
:103CA00044F6D351C1F26201A0FB0101480A009021
:103CB00000BF0098411E00280091F9D101B0704763
:103CC000074B19680868B0E8F00F80F30988BFF364
:103CD0006F8F4FF0000080F311884EF00D0E70478B
:103CE000C403002080B540F20451C2F2000112204A
:103CF00000220823C1E90002C1E902220B610A7512
:103D000040F2E01040F2205240F2B833C2F200001C
:103D1000C2F20002C2F20003FDF76EFE80BD000099
:103D200080B54FF0BF0080F31188BFF36F8FBFF3F2
:103D30004F8F01F0A9F930B14EF60450CEF20000D9
:103D40004FF080510160002080F3118880BD000099
:103D500070B590B006AC20462821FCF74EFC01203F
:103D600006900A904FF4E01000254FF480310226AF
:103D70000F9020460595CDE90355CDE90155CDE9D4
:103D80000715CDE90D61FEF7FDFE78B90F20CDE9ED
:103D900001064FF48060CDE9040501A802210395D6
:103DA000FEF7BAFD002804BF10B070BDFDF71EFD80
:103DB0007047000080B540F25C20C2F20000FFF7BF
:103DC000ADF980BD80B540F2A420C2F20000FFF73B
:103DD000A5F980BD10B540F2FF7E0368C4F2000E65
:103DE00042F6004C7045C4F2010C05DCB0F1804F86
:103DF0000AD040F2004203E0604505D040F60002E0
:103E0000C4F20002904203D14A6823F070031343C6
:103E1000704505DCB0F1804F0AD040F2004203E06B
:103E2000604505D040F60002C4F20002904203D182
:103E3000CA6823F44073134323F080024B69D1F81E
:103E400000E08C681A4360450260C462C0F828E054
:103E500002D10969CCF830100121416110BD000088
:103E6000D0F808C011432CF47F4C41EA032141EA09
:103E70000C01816070470000826822F070021143DB
:103E800041F0070181607047D0F820C0036A23F039
:103E900001030362836923F0F00343EA02122CF06A
:103EA0000A0319438261016270470000036A23F02C
:103EB000100303628369D0F820C023F4704343EAFF
:103EC00002322CF0A00343EA0111826101627047C3
:103ED00080B5406A0021C185C184FFF7E9F980BD42
:103EE0000168CA6822F49072CA604A6922F001022D
:103EF0004A61026B012A03D1CA6822F01002CA602B
:103F0000202180F83E1000210163704780B50168D0
:103F1000CA6822F04002CA60202180F83D10FFF7F5
:103F2000C7FB80BD80B582B090F83E1022291ED11B
:103F30008268B2F5805F02D10169002940D0816AB0
:103F4000B2F5805F07D00AB9026922B102685268EF
:103F500002F07F0201E0026852680A700121826A61
:103F600011448162C18D01390A04C18501D002B0BA
:103F700080BD0168CA6822F02002CA60CA6822F4C3
:103F80008072CA604A6922F001024A61202280F8E8
:103F90003E20026B012A1BD100220263CB6823F072
:103FA0001003CB600B68DB0605D501920A6801920D
:103FB000496801910199818DFFF778F902B080BDC0
:103FC0000168826A49686FF35F2111800221C6E7A8
:103FD000FFF706FB02B080BD10B504460068D4E9C7
:103FE00002C22369016921F44051114301616169F1
:103FF00043EA0C021143C26841F20C639A43114335
:10400000C1604169A26921F44071114343F6000285
:10401000C4F201029042416102D0FEF75FFD01E06F
:10402000FEF76EFD6268192148439100B0FBF1F084
:1040300048F21F51C5F2EB11A0FB01235A096FF0A2
:10404000630302FB0300322303EB0010A0FB01011A
:10405000F02303EA5113206803EB0212C1F343116A
:104060001144816010BD000090F83D10212923D13A
:104070008168B1F5805F01D1016931B1016A0268DF
:104080004B1C03620978516007E0016A036831F84C
:10409000022B6FF35F225A600162C18C01390A045E
:1040A000C18418BF70470068C16821F08001C160F9
:1040B000C16841F04001C160704700002DE9F04146
:1040C0000446006800680840884202D10020BDE82C
:1040D000F0811D460E4690465F1C04E02068006893
:1040E0003040B042F2D0002FF8D02DB1FEF702F9E7
:1040F000A0EB0800A842F1D92068C16821F4D07172
:10410000C160416921F001014161202084F83D0036
:1041100084F83E00002084F83C000320BDE8F081D4
:1041200080B540F2EC20C2F20000FFF7C3F880BD7A
:1041300080B540F2E010C2F20000FDF7B1FC80BD96
:1041400080B540F2E010C2F20000FDF7A9FC80BD8E
:10415000FEE70000002848BF704700F01F01012261
:1041600002FA01F14EF200124009CEF2000242F8CA
:10417000201070474EF60C50CEF200000068C0F3DD
:10418000022070474EF6145300F00F02CEF20003E7
:1041900009011A4400F16043B0F1FF3FC8BF03F5C5
:1041A00064421170704700004EF60C51CEF20001CF
:1041B0000A684FF6FF031A4060F30A2242F080605B
:1041C00040F0FD700860704784B0FEF711FBFFF708
:1041D000BFFDFFF74BFCFFF791FCFFF7E5FCFFF796
:1041E000FFFCFFF7ABFCFFF721FC40F2E014C2F24A
:1041F00000042046FDF746FE204601210124FDF77C
:10420000E7FB41F629100DF10C0CC0F600000CA1E3
:10421000802200230094CDF804C000F0C9FE0220E3
:10422000009041F2397002ACC0F6000007A1802274
:104230000023019400F0BCFE00F00AFDFEE700BF81
:104240004750535F5461736B0000000043414E5F61
:104250005461736B00000000F0B581B00D4644F668
:10426000E41140F2C436C2F20001C2F200060F6847
:1042700031680446081D00F005FC10B1601C0FD029
:1042800027E0306844F63C12C06AC2F20002012105
:10429000136801FA00F023EA00001060601C18D1D6
:1042A000BDB144F6BC10C2F20000416832689160B2
:1042B0008A683368DA6032688B6804325A60326820
:1042C00004328A603168486101680131016001B0DF
:1042D000F0BD3068E41944600AD340F2D030C2F235
:1042E000000000683168043100F0EEFB01B0F0BD61
:1042F00040F2CC30C2F2000000683168043100F0B6
:10430000E3FB44F69810C2F2000001688C4238BF0B
:10431000046001B0F0BD00002DE9F041044600F05A
:10432000F1FB44F62C10C2F20000016840F2C435E3
:1043300001310160C2F20005296844F6B818C2F2E2
:10434000000849B1D8F8000060B92868E16AC06A7D
:10435000884298BF2C6005E02C600068012801D1DC
:1043600000F01EF944F63810C2F20000016844F66D
:104370003C12013101606164E06AC2F20002012175
:10438000136881401943116040F2D83100EB80007E
:10439000C2F2000101EB80025368271D9E68A360F2
:1043A000E6609E689F607760626151F8202001326C
:1043B00041F8202000F0B6FBD8F80000002818BF14
:1043C0002868BDE8F081000070B500F09BFB44F662
:1043D000E816C2F20006306810B100F0A3FB70BD11
:1043E00044F64014C2F20004204600F05DFB44F69F
:1043F0005415C2F20005284600F056FB40F2C830C2
:10440000C2F20000046040F2D430C2F20000056045
:104410000A201021002200F0B9FC306000F082FB7D
:1044200070BD0000F0B581B044F63015C2F2000551
:104430002868E0B144F6D01644F62C17C2F2000604
:10444000C2F2000700F05EFBF068C468201D00F0B7
:1044500019FB38680138386028680138286000F096
:1044600061FB204600F01AF828680028EAD101B064
:10447000F0BD000080B5026C002A08BF80BDD0E905
:1044800002C31344C360634524BF0368C360C368A9
:1044900008461946FCF764F880BD000010B50446D4
:1044A000006B00F04DFB204600F04AFB10BD000001
:1044B00040F2C831C2F2000109680A68B2FA82F318
:1044C0005B090360002A0EBF0020C86800687047BF
:1044D0004EF60454CEF200044FF08055FFF7A2FFD1
:1044E0002560BFF34F8FBFF36F8FF7E7B0B5049D23
:1044F000002914BF2A602D60C5E90F01284601215B
:104500001C4600F067FC85F84C40B0BD2DE9F04733
:104510000A9C8246206B16460F46DDE90859910039
:10452000A5229846FCF761F8206B00EB8600A0F10D
:10453000040020F007067FB104F13400002100BF21
:104540007A5C42547A5C1AB10F2901F10101F7D368
:10455000002084F8430002E0002084F83400201D8D
:104560000E2D28BF0E25E56200F0AAFA04F118000E
:1045700000F0A6FA85F00F00A0610020E06484F846
:1045800050003046514642462461646200F04AFAC7
:10459000B9F1000F206018BFC9F80040BDE8F087EE
:1045A000B0B540F2D8350024C2F20005281900F059
:1045B0007BFA1434B4F5967FF8D144F66814C2F24D
:1045C0000004204600F070FA44F67C15C2F20005A3
:1045D000284600F069FA44F6A410C2F2000000F088
:1045E00063FA44F6D010C2F2000000F05DFA44F61F
:1045F000BC10C2F2000000F057FA40F2CC30C2F218
:104600000000046040F2D030C2F200000560B0BD8E
:1046100080B58C46014641F804CF9445006108D925
:104620009A4201D29C4511D240F2C830C2F2000039
:1046300007E08069D21A824208D240F2D430C2F236
:104640000000006800F040FA002080BD012080BD1D
:1046500010B5044600F056FAA06BB0FA80F0440999
:1046600000F060FA204610BD06480068006880F33C
:10467000088862B661B6BFF34F8FBFF36F8F00DF5C
:1046800000BF00BF08ED00E070B540F2C832C2F2D2
:10469000000212680646D2680D46D468201D00F05C
:1046A000F1F994F82800410704D400F0FE0084F8E2
:1046B000280004E0204631462A4600F0C3F8216A6B
:1046C0002046884770BD00002DE9F04186B044F6D1
:1046D000E814C2F20004206802A9002200F0AEFB38
:1046E00000286BD00DF1040802AD06E020682946D1
:1046F000002200F0A3FB002860D00298B0F1FF3F39
:1047000003DCDDE903200599904702980028EDD4E9
:10471000049E706910B1301D00F0B4F9404600F0FD
:10472000C3F8029901390829E0D80746DFE801F00B
:1047300014142C053E14142C050096F82800039937
:1047400040F0010086F82800B161394430463A460D
:104750003B46FFF75DFFC9E796F82800039BB16968
:1047600040F0010086F82800194430463A46FFF729
:104770004FFF0028BAD096F8280041070BD400F06C
:10478000FE0086F828000DE096F8280000F0FE00F4
:1047900086F82800AAE70398B1693A4601443046F2
:1047A00000F050F8316A304688479FE796F82800B5
:1047B0008107EBD4304600F0C3F997E706B0BDE8B7
:1047C000F081000070B582B00E46044600F082FA17
:1047D00001A800F069F8019919B100F063FD02B079
:1047E00070BD05464EB9A54207D300F05BFD2046DB
:1047F0002946FFF749FF02B070BD4EB140F2D430F8
:10480000C2F2000000680068B0FA80F0420900E0DF
:10481000002244F6E810C2F200000068611B00F0BC
:10482000A1F900F03FFD0028D9D14EF60450CEF298
:1048300000004FF080510160BFF34F8FBFF36F8FC7
:1048400002B070BD70B5054680690E460144284629
:1048500033461446FFF7DCFE002808BF70BD00BFDA
:10486000A869296A064428468847A869224681190A
:1048700028463346FFF7CCFE0028F1D170BD00007A
:1048800040F2CC30C2F200000168096819B100683A
:10489000C068006801E04FF0FF3044F69811C2F2A2
:1048A000000108607047000070B5044600F0E6FBA8
:1048B00040F2BC36C2F2000631680546884203D297
:1048C00000F008F8012000E0002020602846356054
:1048D00070BD000010B540F2C834C2F20004206878
:1048E000016849B1C0684FF0FF310068FFF7CCFEA6
:1048F000206801680029F5D140F2D431C2F20001EC
:104900000A680860226010BD81B0002000904FF05E
:10491000BF0080F31188BFF36F8FBFF34F8F00BFCD
:1049200000980028FCD001B07047000082B001ACB4
:104930002046FFF7BDFD0199FFF744FFFFF7C4FED6
:10494000F6E70000F0B581B0044600F0DBF894F91A
:104950004560012E0FDB04F1240500BF286850B12B
:10496000284600F031FC002818BF00F02BF970B287
:10497000013E0128F2DCFF2684F8456000F0D2F801
:1049800000F0C0F894F94470012F0EDB04F110051B
:10499000286850B1284600F017FC002818BF00F026
:1049A00011F978B2013F0128F2DC84F8446000F08C
:1049B000B9F801B0F0BD000010B520F0070101F119
:1049C0000804844298BF0024410708BF044600F051
:1049D00081F940F2C030C2F20000016891B1DCB14F
:1049E00044F69411C2F200010B681A1944F2F7342C
:1049F000A2424FF0000410D89A420ED900680A6013
:104A0000C4180AE040F22851C2F20001073121F037
:104A100007010160002CE3D1002400F043FC204694
:104A200010BD0000034644F60910C0F600004FF028
:104A3000807C21F0010103E90310A3F1400043F859
:104A4000202C704780B584B002200DF10E01CDE915
:104A5000001040F208204FF0FF3CC2F20000842119
:104A6000FD220123CDF808C0FDF716FDBDF80E109C
:104A700000280ABA4FF0000108BF110C084604B024
:104A800080BD0000D0E9013201699A60D1F804C00C
:104A900082688445536008BF4A600022026108684A
:104AA00001380860086870474FF0FF31024642F84D
:104AB000081F00214260C0E9032201607047000026
:104AC000002101617047000080B5D1F800C01CF1E1
:104AD000010207D000F108039E465B681A68624530
:104AE000FAD901E0D0F810E0DEF8042008614A604D
:104AF0009160C1F808E0CEF804100168013101604E
:104B000080BD00004FF0BF0080F31188BFF36F8FAE
:104B1000BFF34F8F40F20C00C2F200000168013178
:104B20000160704740F20C00C2F2000001680139D8
:104B3000016018BF7047002080F3118870470000A3
:104B4000704700004EF21000CEF20000002101601C
:104B5000816041F63F11C0F201014160072101600F
:104B60007047000070B515460E460446FFF7CAFFB1
:104B700094F84400FF2804BF002084F8440094F80F
:104B80004500FF2804BF002084F84500FFF7CAFF56
:104B9000A06B28B904F1240031462A4600F02AF817
:104BA0002046FFF7CFFE70BD44F69C11C2F2000113
:104BB0000968016044F6E411C2F20001096841602D
:104BC0007047000044F6F010C2F2000001210160BD
:104BD0007047000010B50C4640F2C431C2F200012B
:104BE00009681831FFF770FF20460121FFF734FBF9
:104BF00010BD000010B540F2C43CC2F2000CD0F869
:104C000004E0DCF80030002AC3F81CE0DEF80830CD
:104C1000DCF800402362DCF80030DEF8084003F1E5
:104C200018036360DCF8003003F11803CEF8083095
:104C3000DCF800309862036803F10103036018BFD9
:104C40004FF0FF3108461146FFF706FB10BD00008C
:104C500080B582B0002044F6901C009044F2D14010
:104C6000C2F2000CC0F6000018A180220023CDF88B
:104C700004C000F09DF9012808BF00F0A3FB012843
:104C80001CD14FF0BF0080F31188BFF36F8FBFF3CB
:104C90004F8F44F69810C2F200004FF0FF310160D0
:104CA00044F6B810C2F200000121016044F6E4109D
:104CB000C2F200000021016000F04AF846F2AC5058
:104CC000C0F60000006802B080BD00BF49444C45FA
:104CD0000000000044F63410C2F200000168013107
:104CE0000160704744F63410C2F20000006830B131
:104CF00044F6F010C2F2000001210160704744F652
:104D0000F010C2F200000021016044F63C10C2F233
:104D100000000068B0FA80F0C0B2C0F11F0040F29D
:104D2000D83100EB8000C2F2000101EB800050F8A6
:104D3000041F4968021D9142016001D14968016068
:104D4000006840F2C431C068C2F2000108607047D8
:104D500080B54EF62050CEF20000016841F47F018C
:104D60000160016841F07F410160FFF7EBFE40F216
:104D70000C00C2F2000000210160FFF775FCFFF794
:104D8000B1FFFFF7C1FD002080BD0000F0B581B08C
:104D9000D0B106460F46A0FB01014FF00004B1B9A7
:104DA00007FB06F010F1510F11D850301546FFF7F0
:104DB00003FE58B1044600F15002304639462B46F6
:104DC0000094FFF793FB02E0002400E0002420465B
:104DD00001B0F0BD70B528B30446C06B10B30D46EA
:104DE000216C0026A0FB010131BBFFF78BFE206880
:104DF000D4E90F12A66302FB0103013901FB020192
:104E0000C4E90103FF20E16084F8440084F8450010
:104E100004F110004DB1FFF747FE04F12400FFF745
:104E200043FE06E00026304670BD016809B100F07F
:104E3000CBF9FFF777FE0126304670BD2DE9F04F24
:104E400085B00C46054600F11009243002AF0DF183
:104E5000100A4FF000080492019009E02846FFF77D
:104E600071FD00F01FFA2846FFF7F2FB00286AD117
:104E7000FFF748FED5F838B0BBF1000F12D0284636
:104E80002146FFF7F7FAABF10100A863286910B1DA
:104E9000484600F099F9FFF745FE00200126A8B921
:104EA00052E000BF049850B1B8F1000F02D138466B
:104EB000FFF77AFE4FF00108012038B944E0FFF710
:104EC00031FE0026002000283ED000BFFFF72AFE5A
:104ED000FFF700FFFFF716FE95F84400FF2804BF18
:104EE000002085F8440095F84500FF2804BF002005
:104EF00085F84500FFF716FE3846514600F028F8C1
:104F00000028ABD12846FFF7A3FBB0B10499019864
:104F1000FFF760FE2846FFF715FD00F0C3F90028F3
:104F2000A6D14EF60450CEF200004FF08051016041
:104F3000BFF34F8FBFF36F8F9AE72846FFF702FD4D
:104F400000F0B0F994E70026304605B0BDE8F08FD8
:104F5000B0B50C460546FFF7D5FD44F6E410C2F2A5
:104F6000000001682068421C0FD044F69C136A6858
:104F7000C2F20003D3F800C0914208D32B689C45CD
:104F800005D00020206001240EE000240CE0891AE6
:104F9000884206D9401A20602846FFF705FE002403
:104FA00002E0002020600124FFF7BCFD2046B0BDD8
:104FB0002DE9F04383B00746900098461546894690
:104FC000FFF7FAFC78B106465420FFF7F5FC38B13C
:104FD0000446066354B94FF0FF3003B0BDE8F083D8
:104FE0003046FFF7ADFD0024002CF4D0DDE90A10B7
:104FF0002A46CDE900103846494643460294FFF759
:1050000085FA2046FFF788F9012003B0BDE8F08358
:10501000B0B50D460446FFF75DFE44F6E410C2F25B
:105020000000006822680023904202EB050108D2CC
:105030000025814288BF0125914238BF01231D40D0
:1050400007E00025814288BF0125914238BF012336
:105050001D4321601DB1081A0021FFF7FDF800F083
:1050600021F94EF60450CEF200004FF0805101605D
:10507000BFF34F8F2846BFF36F8FB0BD44F6E410E7
:10508000C2F20000006870472DE9F04F81B044F68D
:105090003410C2F20000006838B144F6A010C2F229
:1050A00000000168013101608AE044F6E410C2F2B8
:1050B0000000016840F2CC3911F1010BC2F2000985
:1050C000C0F800B012D340F2D031C2F20001D9F8DA
:1050D00000000A68C9F80020086044F69C10C2F27B
:1050E0000000016801310160FFF7CAFB44F6981C1B
:1050F000C2F2000CDCF80000834561D3D9F800004F
:105100000068002855D044F63C1A40F2D8304FF0E1
:1051100000084FF0010EC2F2000AC2F200001CE0CB
:10512000D16ADAF800300EFA01F4234301EB810171
:10513000CAF8003000EB81035C685361A568946095
:10514000D560A568A6606E6050F82120013240F855
:105150002120D9F80010096859B3D9F80010C9689E
:10516000CA68164656F8047FBB4527D3D2E90251D8
:105170005769A9607B68D168B3424D6008BF796008
:10518000C2F81480396801393960976A002FC7D096
:10519000D2E907317C689960116A02F11805AC42C6
:1051A0004B6008BF7960C2F82880396801393960DE
:1051B000B6E74FF0FF30CCF8000001E0CCF800700B
:1051C000002001B0BDE8F08F10B5C068C068D0E91C
:1051D0000713826A8B60036AD2F804E000F1180CAE
:1051E00059600021E64508BF5360816211680139AA
:1051F000116044F63411C2F20001096871B144F63D
:10520000A412C2F20002516882628B68C16103621B
:105210008B68C1F808C0C3F804C02DE0D0E90213C0
:1052200042698B60D2F804E0C36800F1040CE645E3
:10523000596008BF5360116844F63C14013911608D
:10524000C16AC2F200044FF0010E22680EFA01F3A7
:105250001A43226040F2D83201EB8101C2F200020F
:1052600002EB8102516842618B688160C3608B6888
:10527000C1F808C0C3F804C011680131116040F2E0
:10528000C431C2F20001C06A0968C96A884291BF8C
:10529000002044F6F011C2F20001012088BF08602E
:1052A00010BD00002DE9F04F81B0FFF72BFC44F654
:1052B0003410C2F200000168013901600068002862
:1052C0007AD144F62C10C2F200000068002873D096
:1052D00044F6A41AC2F2000ADAF8001044F6F018F4
:1052E0000029C2F2000859D044F63C1B40F2D834E1
:1052F00040F2C43E4FF0000C4FF00109C2F2000B27
:10530000C2F20004C2F2000EDAF80C10CE68D6E940
:105310000721B76A91607868316A06F11805A842DA
:105320004A6008BF7960C6F828C03868013838601C
:10533000D6E90202716982604A68F568371DBA428F
:10534000686008BF4D60086801380860F06ADBF8E3
:10535000001009FA00F21143CBF8001000EB8001B5
:1053600004EB810255687261AB68B560F360AB68AD
:10537000AF605F6054F82120013244F82120DEF84C
:105380000010C96A884228BFC8F80090DAF8000007
:105390000028B9D1002E18BFFFF772FA44F6A01406
:1053A000C2F2000425682DB1FFF76EFE013DFBD16E
:1053B00000202060D8F80000FFF7B4FB002001B007
:1053C000BDE8F08F80B582B0FEF7FEFF44F6E8102E
:1053D000C2F20000006898B1022044F6EC1C009074
:1053E00044F62D10C2F2000CC0F6000006A14FF4E6
:1053F00080720023CDF804C0FFF7DAFD02B080BD53
:10540000002002B080BD00BF546D7220537663004F
:1054100023F07F4720F07F4C80EA030000F000403B
:10542000ACEB070303F57C5303F1FF032DE980493F
:1054300009B44FEA144324EA03484FEA154B25EA1E
:105440000B4E0FF2042606EB13273E7803FB06678C
:10545000C7F5000707FB06F64FEAD64606F1020637
:105460004FEA543707FB066CCCF1005C4FEA1C474F
:105470002CEA074C0CFB06F507FB06F404EB15467B
:105480004FEA961649085FEA320234BF00204FF017
:1054900000404FEAD13706FB07FC4FEA1C4C0CFBDF
:1054A0000BF7D21B03FB0CF761EB07010CFB0EF7AC
:1054B000B0EB074072EB17420CFB08F734BFA2EBCE
:1054C0000742B2EB074261EB17414FEA0C444FEA47
:1054D000910706FB07FC4FEA1C4C0CFB0BF7B0EBEB
:1054E000C74072EB573203FB0CF734BFA2EBC74245
:1054F000B2EBC74261EB57310CFB0EF7B0EBC700C4
:1055000072EB57720CFB08F734BFA2EBC702B2EB89
:10551000C70261EB57714FEA816141EA92114FEA8C
:10552000826242EA90124FEA806004EBCC04039F4F
:105530004FEAD13706FB07FC4FEA1C4C0CFB0BF77C
:10554000D21B03FB0CF761EB07010CFB0EF7B0EB72
:10555000074072EB17420CFB08F734BFA2EB07427F
:10556000B2EB074261EB17414FEA8C5504EB9C24E8
:105570004FEA910706FB07FC4FEA1C4C0CFB0BF7AC
:10558000B0EBC74072EB573203FB0CF734BFA2EB12
:10559000C742B2EBC74261EB57310CFB0EF7B0EBE1
:1055A000C70072EB57720CFB08F734BFA2EBC702BF
:1055B000B2EBC70261EB57714FEA816141EA921188
:1055C0004FEA826242EA90124FEA806015EB4C2566
:1055D00044F100044FEAD13706FB07FC4FEA1C4CAC
:1055E0000CFB0BF7D21B03FB0CF761EB07010CFB69
:1055F0000EF7B0EB074072EB17420CFB08F734BF15
:10560000A2EB0742B2EB074261EB17414FEA81314F
:1056100041EA92414FEA823242EA90424FEA8030B8
:105620004FEA0C7615EB1C1544F1000448EA0343DD
:105630004EEA0B484FF0000EB2EB080C71EB03077B
:1056400024BF624639464EEB0E0E4FF0000B001899
:10565000524149414BEB0B0BB2EB080C71EB0307CA
:105660007BF1000B24BF624639464EEB0E0E4FF025
:10567000000B0018524149414BEB0B0BB2EB080CED
:1056800071EB03077BF1000B24BF624639464EEBFA
:105690000E0E51EA020718BF46F0010616EB0E7611
:1056A00055F1000254F1000103D5BDE88901BDE8C0
:1056B0000088BDE88901BDE80048B619524141EBB8
:1056C0000101A3F10103704780807F7E7D7C7B7A9E
:1056D0007978777676757473727171706F6E6E6D9E
:1056E0006C6C6B6A6A696868676666656464636344
:1056F00062616160605F5F5E5E5D5D5C5C5B5B5ACA
:105700005A59595858575756565555555454535336
:1057100052525251515050504F4F4F4E4E4D4D4D91
:105720004C4C4C4B4B4B4A4A4A49494948484847DC
:10573000474747464646454545444444444343431A
:10574000434242424241414110B546EA06464FEAD1
:10575000164646EA42564FEAD22242EA41524FEA00
:10576000D121A3F57053A3F1010300F02FF820F02D
:10577000004000F0004700F1020CBCF5006F01EBA7
:105780000050114640EA070000D210BDBAF1000FE8
:105790000AD01CB503B44FF004004FF004014FF0E1
:1057A00000000FBCBDE810404FF00001BBF1010F3D
:1057B000B9BF04484FF0FF310348002140EA070019
:1057C00010BD00BFFFFFEF7F0000F07F9C46002B65
:1057D00030D477002BD04FEA37071CB503B44FF015
:1057E00010004FF01001BAF1000F06D0BCF1000F0D
:1057F000DCBF40F0080040F008014FF000000FBC93
:10580000BDE810400BF1010BBBF1010F08BF5FEACF
:10581000170722BF12F1010211F101014FF00041FF
:1058200043F1000300F0004043EA00007047F9D361
:105830005708D0E746EA06464FEA164613F1400FEE
:105840001FDD13F1200FDFBF16430A46002120336E
:105850005B42BED0C3F1200746EA06464FEA164631
:1058600002FA07F746EA070622FA03F2C3F1200715
:1058700001FA07F742EA070221FA03F14FF00003A9
:10588000A7E746EA020646EA06464FEA164646EA11
:105890000106BCBF46EA0646360C4FF000034FF047
:1058A00000024FF0000194E72DE9804C70B49A4655
:1058B000934691E8380007C831EA400C48BF34EA03
:1058C000430C03D5FFF7A4FDFFF780FFF0BCBDE854
:1058D000008C2DE9804C70B49A46934691E83800CC
:1058E00007C831EA400C48BF34EA430C03D5FFF740
:1058F0008FFDFFF729FFF0BCBDE8008C2DE9804C3F
:1059000070B49A46934691E8380007C810F0804F6B
:1059100008BF13F0804F03D100F01AF8FFF756FFCD
:10592000F0BCBDE8008C2DE9804C70B49A469346DB
:1059300091E8380007C810F0804F08BF13F0804F7F
:1059400003D100F005F8FFF7FFFEF0BCBDE8008CC6
:1059500020F07F4723F07F4C80EA030000F00040F6
:1059600007EB0C03A3F57C53A3F1FE0392F0000FA9
:1059700000F0B38095F0000F00F077802DE9014929
:105980004FEA114021EA00484FEA144624EA06474C
:1059900000FB06FC08FB06F607FB08F818EB0648B8
:1059A0004CEB164C00FB07F718EB07484CEB174085
:1059B0004FEA124B22EA0B4E4FEA154625EA0647FC
:1059C0000BFB06FC0EFB06F607FB0EFE1EEB064E5F
:1059D0004CEB164C0BFB07F71EEB074E4CEB174B33
:1059E00018EB0B0840F1000018EB0E0B58EB000809
:1059F00040F100008F1A4FF000014FF000063CBF4D
:105A0000C943661B14BFB5EB040C00213CBFC9435E
:105A1000F61B4FEA174427EA04454FEA1C472CEAD5
:105A2000074C04FB076205FB07F70CFB05F616EBBA
:105A3000074642EB174204FB0CFC16EB0C4642EB0C
:105A40001C421BEB060658EB020241414EEA8E0E49
:105A500046EA9E0601D5BDE80189B619524141EBDF
:105A60000101A3F10103BDE801894FEA144524EACD
:105A700005464FEA114721EA074C05FB07F406FBF0
:105A800007F70CFB06F111EB074144EB174405FB4C
:105A90000CFC11EB0C4144EB1C444FEA124722EA88
:105AA000074C05FB07F206FB07F70CFB06F616EBA7
:105AB000074642EB174205FB0CFC16EB0C4642EB8B
:105AC0001C456A1854F1000148BF7047B61952418D
:105AD00041EB0101A3F10103704795F0000F37D0AE
